:060000000A128A1100291A
:10000800F000030EF1000B1820200B191220031327
:100018008312710E8300F00E700E09000313831211
:10002800D93081000B11A00A2008323C03191D2089
:100038000800A001880A080003138312061C850A19
:08004800861C85030B10080063
:1002000008212121282135213D21031383120729AB
:1002100003178316880189010313831606148614B5
:100220000510851005118511081088100811881116
:100230008113151495140313831285018601880117
:100240000800031383160F140F178F120F160800E0
:1002500003138316811281110115811401140313F4
:100260008312D93081000B110800031383128B17FE
:100270008B150B108B160B11080003138316161425
:0C02800096140313831206080B100800EC
:04400E00D420FF3F7C
:00000001FF
